:020000040001F9
:10F000008049002015F401001DF401001FF40100E7
:10F0100021F4010023F4010025F4010000000000A8
:10F0200000000000000000000000000027F40100C4
:10F0300029F40100000000002BF401002DF4010070
:10F040004DF701002FF401008DFA01002FF40100AB
:10F050002FF401002FF4010049F501002FF4010005
:10F060002FF401002FF401002FF401002FF4010010
:10F070002FF401002FF401002FF401002FF4010000
:10F080002FF40100A5F701002FF401002FF4010077
:10F09000C9F701002FF40100CDF701002FF40100A2
:10F0A0002FF401002FF401002FF401002FF40100D0
:10F0B0002FF401002FF40100000000000000000008
:10F0C0002FF401002FF401002FF401002FF40100B0
:10F0D0002FF401002FF401002FF4010000000000C4
:10F0E0000000000000000000000000000000000020
:10F0F0000000000000000000000000000000000010
:10F1000000000000000000000000000000000000FF
:10F1100000000000000000000000000000000000EF
:10F40000DFF80CD000F06EF8004800473516020017
:10F41000804900200648804706480047FEE7FEE78F
:10F42000FEE7FEE7FEE7FEE7FEE7FEE7FEE7FEE7B4
:10F43000F1F7010001F4010040EA01039B0703D04A
:10F4400009E008C9121F08C0042AFAD203E011F823
:10F45000013B00F8013B521EF9D27047D2B201E0E5
:10F4600000F8012B491EFBD270470022F6E710B5C9
:10F4700013460A4604461946FFF7F0FF204610BD22
:10F480002DE9F05F0546002092469B4688460646D9
:10F49000814640241BE0284641464746224600F06C
:10F4A00042F853465A46C01A914110D311461846A5
:10F4B000224600F029F82D1A67EB01084F46224634
:10F4C0000120002100F020F817EB00094E41201E1A
:10F4D000A4F10104DFDC484631462A464346BDE834
:10F4E000F09F0000064C074D06E0E06840F0010385
:10F4F00094E8070098471034AC42F6D3FFF784FF36
:10F50000342D0200542D0200202A04DB203A00FA98
:10F5100002F1002070479140C2F1200320FA03F36A
:10F52000194390407047202A04DB203A21FA02F068
:10F530000021704721FA02F3D040C2F1200291402D
:10F5400008431946704700002DE9F04700268CB0AB
:10F55000DFF86091B0464FF4807501243746069677
:10F56000284602F05FFD38B1D9F80403204203D0E9
:10F57000284602F04DFD26432D1D64007F1CADB2D0
:10F58000082FEDD34FF4BE74204602F04BFD48B176
:10F59000204602F03DFD46F0004606AA012100206B
:10F5A00002F022FD444D16F0FF0F15D00127002474
:10F5B00037420DD009EB8401D1F81005D1F81015B0
:10F5C000C0F3042055F82420C1F3014102B1904753
:10F5D0007F00641C082CEBD3002E67DA4FF0FF305D
:10F5E000CDE9088000263446281910F8507F90F99C
:10F5F000000027F0C008401C44D009A9404602F092
:10F600009BF858B34FEA9719404601F055FC55F85E
:10F6100020701FB1B9F1030F03D00FE0B9F1030F50
:10F6200030D108A84FEAD80208F00703815C4FF0F8
:10F63000010C0CFA03FC41EA0C0181544FF0A0418B
:10F6400001EB8800D0F8000706A9C0F3014A404644
:10F6500002F072F818B1BAF1020F03D012E0BAF159
:10F66000030F0FD1B9F1030F08D1BAF1020F1BD06C
:10F670000221404602F09CFC761CF6B217B14946C6
:10F680004046B847641C042CAED3002E0ED06A4608
:10F690000121002002F0A8FC06990098884205D0BC
:10F6A0000690089809909DE70321E2E70CB0BDE8B9
:10F6B000F087000000600040BC28002000F01F021E
:10F6C000012191404009800000F1E020C0F8801243
:10F6D000704700F01F02012191404009800000F1B5
:10F6E000E020C0F88011704700F01F020121914016
:10F6F0004009800000F1E020C0F80011704700F0E0
:10F700001F02012191404009800000F1E020C0F873
:10F710000011704700F01F02012191404009800054
:10F7200000F1E020C0F8001270474907090E0028D8
:10F7300006DA00F00F0000F1E02080F8141D704799
:10F7400000F1E02080F80014704700002DE9F0413E
:10F750004FF48077384601F0F7FF0124104EA507DB
:10F7600048B1384601F0F7FF0120C5F8080374706E
:10F77000002001F0CBFB4FF48277384601F0E4FF24
:10F7800000280BD0384601F0E6FF0220C5F8080338
:10F79000B470BDE8F041012001F0B8BBBDE8F081D4
:10F7A000A828002007480021C0F84011C0F84411E3
:10F7B000C0F84811C0F84C11C0F80011C0F804118D
:10F7C00003F058B80010014002F0CCBF074810B554
:10F7D000406830B18047002807D0BDE8104000F0F5
:10F7E00041BCBDE8104001F051BD10BD68200020B3
:10F7F000F0B598480023021D01780125101D4FF037
:10F800008056062907D11478240704D10478C4F35C
:10F810000314032C02D0062904D00FE08F4F8E4C26
:10F820007C670EE01478240708D10478C4F303142D
:10F83000032C06D0042C04D0052C02D0062907D0B6
:10F840000EE0D6F84442864FC4F342343C6002E0F6
:10F850001478240704D10478C4F30314032C02D0D1
:10F86000062906D011E07F4C276827F080772760B3
:10F870000EE01478240708D10478C4F30314032C91
:10F8800006D0042C04D0052C02D006290AD011E0A1
:10F890004FF08044C4F80C31C4F81031704C241F70
:10F8A000236002E01478240704D10478C4F303141D
:10F8B000032C02D0062905D00CE0694F03246437DD
:10F8C0003C600AE01478240704D10478C4F30314DC
:10F8D000032C02D006290DD014E0634F05243C60B0
:10F8E000614C78342560604C083423603F243F1D10
:10F8F0003C6002E01478240704D10478C4F30314B4
:10F90000052C02D0062957D068E058490968584AA2
:10F9100011605649091D0968121D116053490831CB
:10F920000968121D116051490C310968121D1160DE
:10F930004E4910310968121D11604C491431096893
:10F94000121D1160494918310968494A2032116075
:10F9500046491C310968121D11604449203109686B
:10F96000121D1160414924310968121D11603F497F
:10F9700028310968121D11603C492C310968121D9B
:10F9800011603A4930310968394A403211603749CB
:10F9900034310968121D1160344938310968121D6B
:10F9A000116032493C310968121D11602F49403104
:10F9B0000968121D116002E0117809070ED1007864
:10F9C000C0F30310032803D0042801D0052805D173
:10F9D000D6F85802274900F04F00086021487438D3
:10F9E000016841F470010160BFF34F8FBFF36F8F67
:10F9F0004FF01021D1F80002002803DBD1F80402F7
:10FA0000002822DA1C4A15601C480468002CFCD02F
:10FA10001524C1F800420568002DFCD0C1F804424D
:10FA200001680029FCD0136001680029FCD0BFF3F5
:10FA30004F8F0C48F0380168114A01F4E06111431E
:10FA40000160BFF34F8F00BFFDE70F490D4808600D
:10FA5000F0BD0000E00F00F00DF0ADBA00C00740AF
:10FA60003C050040FCED00E010560040040400108E
:10FA700020C50040E40E004004E5014000E40140E0
:10FA80000400FA050090D0037C2000200448017F88
:10FA900004480029024901D003F05FB802F0CEBF4C
:10FAA00014290020002000400FB4054B10B503A915
:10FAB000044A029800F02AF810BC5DF814FB00001C
:10FAC000271202006420002002E008C8121F08C1AB
:10FAD000002AFAD170477047002001E001C1121FCF
:10FAE000002AFBD1704700000121202803DA814061
:10FAF0000548014003E0402802DA2038814009B17E
:10FB00000120704700207047FC06FFBC2DE9FF4F25
:10FB10008DB00F460546002606E025280BD0DDE90E
:10FB20000F1290476D1C761C28780028F5D111B073
:10FB30003046BDE8F08F0024A246A1460122EC49E0
:10FB400000E0044315F8013F203B02FA03F00842AD
:10FB5000F7D128782A2810D06FF02F022878A0F14A
:10FB60003001092914D80AEB8A0102EB410144F063
:10FB7000020400EB010A6D1CF0E701CF5FEA000A06
:10FB800003D544F40054CAF1000A44F002046D1C89
:10FB900028782E2817D115F8010F44F004042A28DC
:10FBA0000ED06FF02F022878A0F1300109290AD871
:10FBB00009EB890102EB410100EB01096D1CF2E741
:10FBC00057F8049B6D1C28786C280FD006DC4C2855
:10FBD00017D068280DD06A2814D104E0742810D0FA
:10FBE0007A280FD10DE044F400140AE044F48014A4
:10FBF00001E044F440146978814202D104F5801494
:10FC00006D1C6D1C2A786E2A1FD00CDC632A31D043
:10FC100004DC002A8BD0582A11D1A3E0642A68D0D2
:10FC2000692A0CD165E0732A2ED004DC6F2A73D0C8
:10FC3000702A04D19BE0752A6FD0782A6ED01046C6
:10FC4000DDE90F129047761C50E1C4F30250022800
:10FC500006D0032809D0042801CF09D0066045E169
:10FC600001CFF117C0E9006140E101CF06803DE11D
:10FC700006703BE117F8040B8DF8000000208DF8AA
:10FC80000100EB46012003E057F804BB4FF0FF30C2
:10FC900061074FF0000102D40DE008F10101884630
:10FCA00049450FDA8045F8DB1BF808100029F4D12C
:10FCB00008E008F1010188468142FADB1BF80810D0
:10FCC0000029F6D1DDE90F23AAEB08008146214681
:10FCD00000F036F9304400EB080604E0DDE90F12CD
:10FCE0001BF8010B9047B8F10108F7D221464846AE
:10FCF000F7E00A21C4F302534FF0000B0891022BE6
:10FD000004D001CFC117032B09D00AE0FF1D27F053
:10FD10000707F7E8020108E032E01FE020E000B248
:10FD2000C117042B01D140B2C117031E71F10003AA
:10FD300007DA4FF0000CD0EB0C006CEB01012D2327
:10FD400002E0230504D52B238DF82430012303E0A2
:10FD5000E30701D02023F7E7984658E00A2110E096
:10FD600010210EE010204FF0000B08900CE0102145
:10FD70004FF0000B44F004044FF00809089103E031
:10FD800008214FF0000B0891C4F30253022B04D05A
:10FD900001CF0021032B06D006E0FF1D27F0070747
:10FDA000F7E8020103E080B2042B00D1C0B24FF0AB
:10FDB000000823072BD5702A07D0DDF820C08CF06F
:10FDC000100C5CEA0B0C05D00EE040238DF82430BB
:10FDD000012308E050EA010306D030238DF82430D7
:10FDE0008DF8252002239846DDF820C08CF0080C01
:10FDF0005CEA0B0C0BD150EA010301D1630706D575
:10FE000030238DF824304FF00108A9F10109582A58
:10FE100004D038A20B9208AA0A920BE03AA2F9E7A2
:10FE20005B46089AFFF72CFB0B9B9B5C0A9A521EC1
:10FE30000A92137050EA0102F2D10A98ADEB000069
:10FE400000F1200B600702D524F4803401E04FF06C
:10FE50000109D94502DDA9EB0B0000E0002000EB11
:10FE60000B0141440890AAEB010AE00306D4DDE946
:10FE70000F232146504600F063F806444FF0000976
:10FE800008E009A911F80900DDE90F12904709F10E
:10FE90000109761CC145F4DBE0030CD5DDE90F2335
:10FEA0002146504600F04CF8064404E0DDE90F120C
:10FEB00030209047761C0899481E08900029F5DCF0
:10FEC00008E00A980A990078491C0A91DDE90F12A6
:10FED0009047761CBBF10001ABF1010BF1DC214630
:10FEE0005046DDE90F2300F019F806446D1C1BE6AF
:10FEF0000928010030313233343536373839616200
:10FF000063646566000000003031323334353637C3
:10FF10003839414243444546000000002DE9F04194
:10FF2000044600251E461746880404D405E03946D9
:10FF30002020B0476D1C641EF9D52846BDE8F0812D
:10FF40002DE9F041044600251E469046C80301D520
:10FF5000302700E02027880404D505E041463846D4
:10FF6000B0476D1C641EF9D52846BDE8F08110B578
:10FF700001220221002000F0C3FD08B1072810D1A2
:10FF800007220221012000F0BBFD08B1072808D19B
:10FF900000210A22084600F0B3FD08B1072800D16D
:10FFA000002010BD022000F06DBC000070B50024E0
:10FFB000064D06E06868012110F8340001F07AFC73
:10FFC000641C28788442F5D3002070BD20200020D6
:10FFD000F8B515460C460646052A01D20720F8BD9D
:10FFE00001F04EFD18B901F01DFD0028F7D11049B0
:10FFF00000204E600C70C1E902500E4D08610DE00A
:020000040002F8
:1000000006EBC4006968009181788DF801100078D2
:10001000094A694601F0A0FC0028E0D1641EE4B260
:10002000EED2BDE8F840054A0021024800F04EB883
:10003000202000200C2D0200351202007910020051
:10004000BFF34F8F05480168054A01F4E061114391
:100050000160BFF34F8F00BFFDE700000CED00E033
:100060000400FA050EB500210091CDE901106A46A1
:1000700044F20100FFF7E4FF0EBD10B58268C368CB
:10008000934203D001F0BCF8002010BD052010BD44
:1000900029B112B1531E134203D0092070470E201C
:1000A00070470160838000218160C160084670470D
:1000B00010B58268C3689A1A83889A4203D801F0FF
:1000C000A9F8002010BD042010BD0000074B5B689C
:1000D00023B12AB120B10068037C1BB1082070470E
:1000E000072070474174426100207047442000207F
:1000F0002DE9F047074698461446894690074FF089
:10010000000526D12CB302F02DFA134E06F1100093
:10011000C6F80C800570457080F8029044607560E8
:10012000357075701420FFF7C9FA07211420FFF706
:10013000FCFA1420FFF7D8FA0848076007211120BD
:10014000FFF7F3FA0548001F0068B0600020BDE823
:10015000F0870720FBE7000034200020081501404D
:100160002DE9FC47DFF87890D9F8043073B368B311
:10017000052902D20720BDE8FC87436933B3437CDD
:10018000012B25D0002704460025884616468DF809
:100190000050684600F0CAF801A802F057FDC8B147
:1001A000012101700F4944600968C0E90218C0E9E3
:1001B00004769DF8040089F801009DF8000000F025
:1001C000D9F81420FFF7A6FA2846D4E70820D2E78A
:1001D0000F46D8E704259DF8000000F0CBF8F3E7C0
:1001E00044200020041501400649496839B130B166
:1001F000416921B100210174022102F017BB0820DE
:10020000704700004420002070B50A4E01460A489D
:10021000B578FFF732FF04464DB10020B070711C75
:100220000122C81D01F0B4FC08B1FFF71BFF2046F6
:1002300070BD00005420002054290020F0B5284E45
:1002400089B01F460D00044672603BD0A88829681B
:1002500082B22448FFF71CFF002834D1A889A9687E
:1002600082B220481030FFF713FF00282BD1202244
:100270001D496846FFF7E0F860690690207C00B1F0
:1002800001208DF814008DF81C70607C00B10E20E8
:100290008DF81500E0680290A06803902068019036
:1002A000606800900E48114A6946083001F03CFC35
:1002B000002808D1B0702068401C04D09DF81D00B3
:1002C00018B106E0072009B0F0BD0548083001F07C
:1002D000B7FC03490122491CC81D01F059FCF2E793
:1002E0005420002054290020142D02009D290200D2
:1002F00010B501460B48FFF7DBFE040010D10A4899
:1003000001F0E8FD60B9084906480839FFF7B5FE75
:1003100030B9054901220839034801F055FD04466A
:10032000204610BD642900205C20002030B5EFF38A
:10033000108172B60D4A9468012324B1037000291C
:1003400000D162B630BD93604FF0E023D3F8805106
:10035000074C25401560C3F88041D3F884415460B0
:100360005A17C3F8842100220270E8E7742900209C
:10037000FC06FFBC0B498A68002A11D000280FD167
:10038000EFF3108072B60B684FF0E022C2F8003134
:100390004B68C2F8043100228A60002800D162B69E
:1003A00070470000742900202DE9F04106460868D6
:1003B0000C46411C4FF0A0474FF0010506D005FA4E
:1003C00000F1C7F80815206801F0D7FD6068411CEE
:1003D00002D0002101F0C0FD3079204901EB40102E
:1003E000A169007F00283068C0F8241525D0607D01
:1003F000227D31681043C1F86C05D4E900123068E1
:10040000C0F80C15C0F8142524E0A068411C02D0E7
:10041000002101F0A1FDE068411C05D08540C7F82E
:100420000855E06801F0A9FDD4E902123068C0F86F
:100430000825C0F81015BDE8F081607D217D326887
:100440000843C2F86C05D4E900123068C0F81425DE
:10045000C0F80C15207D0128D7D0ECE71429002026
:1004600070B540B10C4D297839B1044602F05EF800
:1004700028B1002070BD0E2070BD082070BDE86856
:10048000062807D20549226801EB8001401C0A605A
:10049000E860EEE7042070BD082000200826002058
:1004A00040B1054900220123CA600B70C1E9010275
:1004B000104670470E2070470820002000281FD0EB
:1004C00000291DD00F4A1278002A19D00A88112A53
:1004D0000ED0302A06D0322A07D0332A10D1091D77
:1004E00001F0E4BE091D01F059BF091D01F054BE21
:1004F0008988B0F85E22914202D1002180F85B1217
:10050000704700000820002010B50B46040009D0F9
:10051000124A107840B1D06830B194F85B0228B12B
:10052000112010BD0E2010BD082010BDA4F85E32B1
:100530000020906084F85C0284F85A0284F8590222
:1005400007482246012100682060184694DF0028F1
:10055000EBD1012084F85B02002010BD08200020B0
:100560000826002010B5044601F080FD204600F06A
:1005700011FA21460448FFF7A1FF21460248BDE8D1
:100580001040103800F086B83C23002070B50546B6
:1005900008780C4601280AD002281CD0032826D14E
:1005A00013A0FFF781FABDE8704002F02FB8618810
:1005B00004F10A02284600F039F808B1FFF752FDAD
:1005C000284600F0D7F808B1FFF74CFDBDE87040B1
:1005D0000BA0FFF769BA002506E06068405DFFF7F1
:1005E00087FE0028F9D16D1C207AA842F5D870BD8D
:1005F000446973636F6E6E65637465640D0A000011
:100600005468652064657669636520686173207449
:100610006865204E6F7264696320554152542053BF
:100620006572766963650D0A0000000048B141807B
:100630002AB15188C1801188818091880181002070
:1006400070470E207047000030B5114B0D46040076
:100650000FCB85B08DE80F0018D0BDB1214668469C
:1006600063DF002810D120788DF812000120ADF84A
:1006700010004FF6FF7060802868E0600020A080C6
:10068000208104A8FFF7ECFE05B030BD0E20FBE78B
:10069000E02C02001FB500282ED000292CD0428863
:1006A0004FF6FF739A4202D08C88A24224D10C8864
:1006B000112C14D0392C1FD18288002A1CD04B89D0
:1006C000934219D1C268002A16D002228DF8002068
:1006D00001F110020192897B8DF8081009E08988E8
:1006E000914209D1C168002906D003218DF800107C
:1006F0004380C268694690471FBD7FB500220092C3
:100700000192029203920B7801F10E02002B2FD17D
:100710008B88012B2CD18B790478A34228D100231C
:1007200017E003EBC30432F81450022D02D0032D5E
:100730000ED105E002EB44042489ADF80E4007E039
:1007400002EB44042589ADF80A506489ADF80C40E9
:100750005B1C0C7A9C42E4D8C268002A08D0498805
:10076000ADF8021001218DF80010C268694690476B
:100770007FBD00001FB5010019D04888A0F57F4259
:10078000FF3A16D0C988A1B101228DF80C200A4B7E
:1007900000228DF80D20D3E90423CDE90023ADF824
:1007A000021003A9029169469CDF04B010BD0E201F
:1007B000FBE70820F9E70000E02C02003EB518B185
:1007C000142A03D907203EBD0E203EBD4388A3F561
:1007D0007F44FF3C0DD0084D38CD8DE838000389AB
:1007E0000291ADF80230ADF80620408869469CDFE2
:1007F0003EBD08203EBD0000FC2C020000B51348A1
:1008000089B00023406807905022114907A801F0E1
:1008100071FF08B1FFF726FC6A460021012001F0B4
:1008200053FF08B1FFF71EFC1720ADF81000684613
:1008300001F040FF08B1FFF715FC064801F030FF5A
:10084000002801D0FFF70EFC09B000BD7C2C02008F
:1008500094200020650502000149085C70470000F3
:10086000AE2C02000649095C4FF0A040D0F81005FC
:10087000C84010F0010000D0012080F00100704756
:10088000AE2C020007490B5C4FF0A041D1F80425C3
:100890000120984020EA0203C1F808351040C1F851
:1008A0000C057047AC2C02000249085C012101F0E4
:1008B00090BB0000AC2C02000249085C002101F052
:1008C00088BB0000AC2C02000649095C4FF0A04038
:1008D000D0F80405C84010F0010000D0012080F0DD
:1008E00001007047AC2C02007CB50024084E254660
:1008F0000122305D009500231146019501F0F6FAC2
:10090000641C022CF4D3BDE87C4000F003B8000066
:10091000AC2C020010B500242046FFF7C5FF641C74
:10092000022CF9D310BD10B500242046FFF7C4FFF8
:10093000641C022CF9D310BD10B50246064B4FF0D3
:10094000FF3000215C5C944201D1084610BD491C77
:100950000429F7D310BD0000AE2C020070B50C4E78
:100960000C004FF0000530600BD0012000F0A4F81F
:1009700008B1022004E0002000F09EF800B10B2036
:100980002070706810B9FFF7F2FA0546284670BD6E
:100990000020002010B51A4C0188606810290ED084
:1009A00011292BD1401E606028D1FFF7E0FA002802
:1009B00024D02168002921D0BDE810400847D0B9D3
:1009C00000210122084600F09BF808B107280FD14A
:1009D00007220221012000F093F808B1072807D16F
:1009E00004220221002000F08BF820B1072802D059
:1009F000216801B188476068401C606010BD00003C
:100A00000020002010B5002000F0AEF908B1062843
:100A100006D1012000F0A8F908B1062800D1002075
:100A200010BD00002DE9F0470D468146FFF784FF19
:100A30000446042838D2DFF878801C481D4EA8F1FF
:100A4000100735B3012D0ED0022D2DD104EB44003B
:100A500030444578002D27D0F968002924D0284655
:100A6000BDE8F047084704EB4401755C0E4471781B
:100A700059B179680E4A01EB810149000E3A80684C
:100A8000FFF76EFB08B987F80290B17808F80410F8
:100A9000E0E78068FFF7A8FB04EB4401314418F855
:100AA00004008D78A842D5D0BDE8F087B42C0200B0
:100AB000FC1F0020DC250020FFF7D4BE10B5042861
:100AC0000ED00A2818D1002000F03CF808B1FFF73A
:100AD000C9FAFFF797FF08B1FFF7C4FA32DF05E064
:100AE00006481321408876DF082805D0002803D067
:100AF000BDE81040FFF7B6BA10BD00002C2300205F
:100B000070B50023042810D20D4D00EB4004012ADB
:100B100002D101290CD00022094E00EB40003044E4
:100B200061B1012906D0022906D00723184670BDFD
:100B30000E30C2B22A55F9E74270F7E78270F5E746
:100B4000DC250020044A01460020127AD20702D098
:100B5000084600F04FB87047EC1F00202DE9F04127
:100B600006461F4800240F464160C0E90262B007F4
:100B70001FD50025012211462846FFF7C1FF6D1C35
:100B80000446042D02D2002CF4D012E08CB97A086D
:100B900004211448FFF71CFA04000AD1FFF706FAF3
:100BA000040006D10F48104A0021001FFFF78EFAFB
:100BB0000446F00701D0FFF797FE74B909480B4AC5
:100BC00000210C38FFF782FA040006D10548084AD4
:100BD00001210838FFF77AFA04462046BDE8F08183
:100BE000EC1F0020C02C0200790D0200C11402008D
:100BF000A5FF01002DE9F047594C05460026607815
:100C000018B100206070FFF785FE0120554F4FF4AA
:100C10007A694FF4C87A4FF06408182D2CD2DFE8B7
:100C200005F0890C0C2C3A4751565A615A619B6960
:100C300069696969898C8F929B9B0020FFF744FE4C
:100C400000284FF0000008D0FFF72EFE022D02D141
:100C50004FF4E16006E0484604E0FFF72DFE022D68
:100C60002ED05046B0FBF8F1257060684143002259
:100C70003868FFF775FA064659E00020FFF724FEB2
:100C800028B10020FFF710FE4FF44870EAE700207B
:100C9000FFF712FE14E00020FFF716FE00284FF0C9
:100CA000000002D0FFF700FED5E7FFF705FED8E70A
:100CB0000020FFF709FE0028E9D00020FFF7F4FD2F
:100CC000C820CFE70020FFF7DDFD257007E00020FA
:100CD0003FE025702BE060700120FFF7D3FD00227C
:100CE0006168C5E760700120FFF7CCFD606800EB2C
:100CF0008001BCE77868FFF777FA0646D5F1110066
:100D000000D01EB10220FFF7CFFD10E001280BD963
:100D1000C82110FB01F1B1FBF8F1606800224143EA
:100D20007868FFF71DFA06460220FFF7C5FD30463A
:100D3000BDE8F087FFF7EEFDCBE7FFF7EBFDC6E779
:100D4000FFF7E8FD04E0FFF7E5FD0020FFF7B4FD45
:100D50000120FFF7B1FDBCE7FFF7E5FDB9E70000B3
:100D6000EC1F0020B42C020010B5FFF775FD032125
:100D700001F00DF9002010BD00780221FFF752BEEE
:100D800070B5054601461AA0FEF78EFE68786D28FC
:100D90002DD1062001F0E9F8072001F0E6F8A87847
:100DA0004FF0A044622808D18020C4F808054020F4
:100DB000C4F8080513A0FEF777FEA878682808D1C4
:100DC0008020C4F808054020C4F80C0513A0FEF7E5
:100DD0006BFEA8786C280AD18020C4F80C0540204E
:100DE000C4F80C05BDE8704013A0FEF75DBE70BDF1
:100DF000636F6D6D616E64206973737565642573CF
:100E00000D0A0000536B7936363131322042797049
:100E1000617373204D6F64650D0A0000536B793662
:100E200036313132204869676820506F776572200B
:100E30004D6F64650D0A0000536B793636313132DF
:100E4000204C6F7720506F776572204D6F64650D71
:100E50000A00000005494FF0FF32082841F8202021
:100E600002D3084480F8482070470000BC280020C6
:100E7000F0B54FF0FF3512B10023082601E008233A
:100E80000C260C4C05E000BF54F823707F1C04D0E6
:100E90005B1CB342F8D32846F0BD26185DB286F835
:100EA000305044F82310002AF5D1E11881F84800A9
:100EB000F1E70000BC2800200249084490F9300006
:100EC00070470000BC28002008B5024690F85A027E
:100ED0000B4600EBC00101EB001002EB800092F822
:100EE000592242B1521ED2B202EBC20100EB4102C2
:100EF000518A491C00E0C188ADF800100089ADF8A6
:100F000002006946184696DF08BD000070B5084C1F
:100F1000050009D010342168002907D00868206036
:100F2000496828468847F6E70834F4E770BD0000B2
:100F3000A82800202DE9F05F26484168F1B3DFF8CA
:100F400098B00E688146DBF8004087688078E11B26
:100F500021F07F45ED1CB0B9DFF880804FF4803080
:100F6000C8F84403C8F804031120FEF7A7FB1120BA
:100F7000FEF7BAFB4FF0010AC8F800A02F2000F0DE
:100F8000F3FB89F802A0B54200D23546124BE819AE
:100F90003C3320F07F401860DBF800105A46091BF4
:100FA00021F07F41001B20F07F40C91C81420FD9F6
:100FB000106818602F2000F0D7FB00E004E0BDE8C7
:100FC000F05F1120FEF7A6BBBDE8F05F01F0CABAE2
:100FD000BDE8F09F342000200415014000100140BE
:100FE00001460148FFF789BB2C2300202DE9F84377
:100FF000054690F85A020F4600EBC00101EB0010C5
:1010000005EB800695F85942914604EBC40006EBC7
:1010100040013279601C0A31904226D16B46002291
:10102000284600F0B7F918B310E0401EA04201D1E5
:10103000002004E004EBC40006EB40001C308046B6
:1010400002466B46284600F0A5F930B10020387002
:101050006946484697DFBDE8F88395F8590241464E
:10106000401C641C85F85902E4B23079A042DCD8F7
:10107000012038700020EEE72DE9F041002601251F
:10108000144C22E06068226900EBC607387805FA44
:1010900000F1114217D08A43226100F0B9FC0246E8
:1010A0003878E36805FA00F1194002FA00F3994232
:1010B00009D17978012901D0012100E000215140B6
:1010C0007A6802B19047761CF6B220788642D9D36E
:1010D000BDE8F081202000202DE9F047894690F8F6
:1010E0005A12904601EBC10202EB011100EB81079D
:1010F000384601F01BFA060041D0224CA0680628B1
:101100003DD200EBC000204D00EB400005EB80001D
:101110006422A0F802803946001DFEF78DF90027F1
:10112000B9F1000F07D0A06800EBC00000EB400051
:1011300005F8207007E0A168022001EBC10101EB76
:10114000410105F82100A06800EBC00101EB41015D
:1011500005EB8101401C8E66A060E16888420ED1DB
:10116000002608E006EBC60000EB400005EB80001F
:10117000816E8847761CE0688642F3D3A760BDE89D
:10118000F0870000082000202026002030B50D4602
:1011900090F85A12144601EBC10202EB01119BB008
:1011A00000EB810001F0C2F9030007D0ADF8024066
:1011B00001208DF800006846019598471BB030BDAE
:1011C0000E4910B50A784C780023A24212D0521C66
:1011D000D2B20A70022A00D10B70084A0B7818327A
:1011E00052F8232002608868104420F07F40886015
:1011F000012010BD0360002010BD0000342000203D
:10120000826883881A4003689A5C0A708168491C66
:1012100081607047C26883881A4003689954C16826
:10122000491CC160704710B50446C0B2FFF760F8B2
:10123000204610BD2DE9F041124E07460125BD4064
:101240003068FEF7D1FF00280DD10F4C20692842ED
:1012500007D1384600F0DCFB0028E06805D02843C1
:1012600004E0A8432061BDE8F081A843E060206964
:1012700028432061A1683068BDE8F0410022FEF7F4
:101280006FBF00000C2D020020200020F8B51C4C80
:101290002078002832D0E068002658B10025607818
:1012A00000282BD1684648DF052805D030B1FEF76D
:1012B000D9FE0AE00125F2E7012606E0009800F0D9
:1012C000D5FA216909B1009888479DB9607800284E
:1012D00014D16088ADF800006946A06861DF052878
:1012E00003D020B1FEF7BEFE04E0012502E0D4E900
:1012F00002018847002ED2D0002DE6D0F8BD0000B4
:101300006820002070B50E460446007918494FF455
:10131000A27501EB4010017F2068A1B14FF48871E4
:1013200000F09EFE4FF49071206800F099FE4FF49B
:101330009271206800F094FE2946206800F090FE2B
:101340000C49206809E04FF48E7100F078FE2946C0
:10135000206800F074FE08492068C0F80413206873
:1013600000F0A5FA3146BDE8704000F084BA0000F4
:101370001429002010030200800002000121814096
:1013800003484068014201D00120704700207047A7
:101390001820002010B509892AB1D088491C814243
:1013A00018D1002010BD90F85A2202EBC20404EBC1
:1013B000021200EB820212899142F2D0491C19807C
:1013C00090F85A1201EBC10202EB011100EB81000F
:1013D000008902E01980D088401E5880012010BD8D
:1013E0002DE9F8430E468146002401F1100561E025
:1013F00029192F5D487802280AD0032808D004282C
:1014000024D0052822D006283ED007283CD04FE023
:101410004FF0000816E000BF04EB4800411902201D
:101420006A46891C64DF58B9BDF80010B9F800009D
:10143000814205D19DF8021099F80200814234D012
:1014400008F10108B8EB570FE6D331E04FF0000880
:1014500016E000BF04EB8800411902206A46891C8F
:1014600064DF58B9BDF80010B9F80000814205D119
:101470009DF8021099F80200814216D008F1010887
:10148000B8EB970FE6D313E010206A46891C64DF9F
:1014900070B9BDF80010B9F80000814208D19DF87C
:1014A000021099F80200814202D10120BDE8F883C0
:1014B0003C44641CF07BB4EBD00F99D30020F5E7DB
:1014C0000348017AC90702D00078FFF793BB704741
:1014D000EC1F00202DE9F043264CA4F110092278DE
:1014E000D9F8048099F80350404694F801C0D9F81F
:1014F000086031E002EB42036168521C01EBC3015A
:10150000A378D2B2934200D100220B78022B02D0F2
:10151000032B21D11DE003464F68194603E0B94271
:1015200003D00B46C969B9B1F9E7A9B18B4205D11E
:10153000C06918B9104E0125B56000260F68C96949
:10154000D96149B10B683B440B6005E00174C06987
:1015500000E000210028F9D19445CBD1C9E901066A
:1015600089F80350404502D00120BDE8F0830020F7
:10157000FBE7000044200020001001402DE9F0416D
:101580002A4F0446002607F11005D7F804803EE0F4
:1015900002D02046E4691DE02878696800EB40022B
:1015A000401CC0B201EBC2012870AA78904200D161
:1015B0002E700A784868012A2BD1027C4ABB8A68BF
:1015C0004260CA6882600A69C26049698161F978CB
:1015D00001B146604368BA68DFF854C0991A21F037
:1015E0007F41614502D28268114406E0D11A8268C7
:1015F00021F07F418A4202D9511A016000E0066061
:101600004660012186600174C66101F0F1F8002C8A
:10161000BED1287869788842BED17968414502D028
:101620000120BDE8F0810020FBE70000342000200D
:10163000FFFF7F0000238CB02F4A03211846FEF7DE
:1016400057FD08B1FEF70EFD2CA018220068069089
:101650002B496846FDF7F0FE2A4807904FF480704A
:1016600029490A90CDE908010723284A07A96846B5
:10167000FEF7E4FD08B1FEF7F5FCFFF7BFF8244ADA
:1016800040F6CD410120FFF769FA08B1FEF7EAFC08
:1016900069460020FFF762F908B1FEF7E3FC1D4838
:1016A000FEF7FEFE08B1FEF7DDFC1B480090124875
:1016B00069464830FEF7C8FF08B1FEF7D3FC132196
:1016C000142000F0DFFE06A8FFF75AFB134A03219F
:1016D0004FF0A040C2F800174FF08051C0F80C1531
:1016E00000F094FF0EA0FEF7DFF93EDF0028FCD0EB
:1016F000FEF7B8FCF9E70000E42200203A6D68002C
:10170000942C0200E4200020E4210020352902006E
:10171000BD0A0200E10F02008D05020070000050BA
:10172000556172745F63205363616E2073746172DC
:101730007465640D0A000000C20800F00703012070
:10174000895C98400840704700F18040006800289C
:1017500000D00120704708B500F1804000210160F1
:101760000068009008BD000000283ED01F49204AB4
:10177000096800BF00BF00BF00BF00BF00BF00BFBF
:1017800000BF91422FD000BF00BF00BF00BF00BF0D
:1017900000BF00BF00BF00BF00BF00BF00BF00BF51
:1017A00000BF00BF00BF00BF00BF00BF00BF00BF41
:1017B00000BF00BF00BF00BF00BF00BF00BF00BF31
:1017C00000BF00BF00BF00BF00BF00BF00BF00BF21
:1017D00000BF00BF00BF00BF00BF00BF00BF00BF11
:1017E00000BF00BF00BF401EC3D170477C20002057
:1017F0000024F40070B50F4C0025207808B1852531
:1018000016E00021A16061602161E1604FF0E020FD
:10181000D0F80001012610F0010F03D107210020AC
:1018200000F029F800F098FF08B903480660267018
:10183000284670BDA82800201805004038B50020B3
:101840008DF800006846FEF771FD074C207808B956
:10185000FFF7D0FFE068401CE0600120A0709DF819
:101860000000FEF787FD38BDA8280020002801D120
:10187000FFF74CBB70474907090E002806DA00F055
:101880000F0202F1E02282F8141D03E000F1E022D1
:1018900082F8001400F01F020121914040098000ED
:1018A00000F1E020C0F88012C0F800117047000B72
:1018B00040B270472DE9F0418846054600F01EFE13
:1018C000234E002828461AD0FFF7F6FA304490F845
:1018D00048008009032802D001280ED007E04FF00D
:1018E000A040D0F81005E84010F0010F05D003210A
:1018F0002846BDE8F04100F05BBB0221F8E700F0AC
:1019000009FE002822D02846FFF7D6FA04464FF4F5
:10191000807000EB84000F4F81B207EB8400D0F899
:10192000102542F00102C0F81025084600F070FBB7
:10193000B8F1000F0AD02846FFF7BEFA56F820008B
:10194000002803D00120A040C7F80403BDE8F081BF
:10195000BC280020006000402DE9FC41DFF8A48095
:10196000044608EB0400002790F930001346C01726
:101970000E46401C01D0082741E0F2781946204667
:10198000FFF776FA0546401C38D0B07850B14FF0DA
:10199000A04000EB8400D0F8001721F00201C0F84D
:1019A000001707E000217378204600910A46019154
:1019B00000F0AEFAF078C0B11348317800EB850042
:1019C000D0F81025114B1A40C0F810254FF4F852EA
:1019D0004FF4403302EA042203EA01410A43D0F8FB
:1019E00010150A43C0F8102509E008EB050032780D
:1019F00010F8481F41EA8211017000E004273846C0
:101A0000BDE8FC81BC28002000600040FFE0FCFF36
:101A10004FF0A041D1F81015C14011F0010000D0E5
:101A20000120704770B5144D95F8540008B1082096
:101A300070BD0020411E2A18401CC0B282F8301030
:101A40002028F8D300242046FFF704FA641CE4B2EF
:101A50000C2CF8D307210620FFF70DFF4FF4BE70C2
:101A600000F0D6FA05494FF00040C1F80403012008
:101A700085F85400002070BDBC28002000600040A4
:101A8000034890F85400002800D00120704700005F
:101A9000BC2800200121B1EB507F01D1012070470B
:101AA000002070472DE9F84F0427174E0024824686
:101AB000A1464FF0010800BF8DF800906846FEF780
:101AC00035FC08FA04F5354203D02046FFF756FCF2
:101AD00060B19DF80000FEF74DFC27B104F1010450
:101AE000AE43E4B2E8D13846BDE8F88F074908FABA
:101AF00004F000274A68104348608AF800409DF8C7
:101B00000000FEF737FCEEE7FF3F0F001820002033
:101B10000448017809B18520704701210170002037
:101B200070470000182000202DE9F041054600799B
:101B3000164F904607EB40140E46E07E10B1082089
:101B4000BDE8F081707F20772846FEF72DFC5FEA24
:101B5000080060603169216003D0317F2846FFF7BB
:101B6000D1FB287907EB4010007F0028286801D0BE
:101B7000082100E00421C0F800150020E07520765F
:101B8000A0750121E176A076DAE700001429002093
:101B90002DE9F04105460079284E904606EB4014A9
:101BA0000F46207F18B10846FFF774FF80B16268C6
:101BB00000234FF404704FF4017172B12A7906EBDF
:101BC0004212127F002A2A6805D0C2F8080304E0F6
:101BD0001020BDE8F081C2F80813E27DB2B1227E88
:101BE0007AB162685AB12A7906EB4212127F1AB1B1
:101BF0002968C1F8040302E02868C0F80413112022
:101C0000E7E72761012384F8188005E084F817804E
:101C10000020E760607620762879424606EB401087
:101C20003946007F0028284603D0BDE8F04100F087
:101C300073B8BDE8F04100F01BB800001429002083
:101C400070B504460079094D05EB4010017F00296D
:101C50000AD1807E002807D1204600F0C6FC2179F9
:101C6000012005EB4111887670BD00001429002089
:101C70002DE9F05F04460079264901EB4015A87E66
:101C8000184302D1204600F0B0FC686800282068A4
:101C900006D04FF40171C0F804130020BDE8F09F96
:101CA0004FF4A276314600F0CAF9B1464FF4927A69
:101CB0004FF4847B5146206800F0BCF90646594633
:101CC000206800F0B7F980464946206800F0B2F974
:101CD000074648EA07003043ECD056EA070007D130
:101CE0002946206800F05CFCE87D697E8842E1D8E6
:101CF0000020E8750EB10320D0E70FB10F20CDE72B
:101D0000A97E01200029216801D00860C5E748604C
:101D1000C3E70000142900202DE9F05F894604463E
:101D20004FF488759A46904600260068294600F0D0
:101D300097F94FF4A2773946206800F091F92068AE
:101D4000C0F83495C0F838852068BAF1000F14D077
:101D5000D0F8001241F02001C0F800122179DFF81C
:101D6000648008EB4110406850B120684FF4047162
:101D7000C0F804133046BDE8F09F01210160EDE793
:101D8000AA46B9464FF4927B5146206800F063F9A9
:101D900007464946206800F05EF905465946206826
:101DA00000F059F9014647EA05000843ECD02379D1
:101DB000002208EB4310C27501B10326002DD9D0D3
:101DC0000F26D7E7142900202DE9F04705460079B2
:101DD0003F4E904606EB40140F46207F18B1084650
:101DE000FFF758FE30B1284600F074F820B11120FA
:101DF000BDE8F0871020FBE784F81680A760002775
:101E0000A78228794FF0010806EB40143E46207F58
:101E10000028286825D04FF49079494600F020F931
:101E20004FF4AC7A5146286800F01AF92868A17D71
:101E3000A268C0F84425C0F848152868C0F8088092
:101E40006068F0B94946286800F005F980465146B7
:101E5000286800F000F958EA0001F3D058BBA775D4
:101E60000FE04FF48E7A514600F0E9F82868C0F888
:101E700008802146286800F03FFD61684FF48070BB
:101E800089B13046B4E75146286800F0D3F810B95C
:101E9000A08A4845F7D1A08A484505D02146286840
:101EA00000F02AFD00E08146A08AA17D8842EAD3A5
:101EB000A08A484501D10F26D1E75146286800F095
:101EC000B9F80028F9D02868C0F80C80C7E70000EE
:101ED000142900200079044901EB4010807D00287E
:101EE00000D00120704700001429002070B541EA9D
:101EF0004201DDE904564FF0A04441EA830141EA82
:101F0000052104EB800041EA0641C0F8001770BDCE
:101F100070B541EA4201DDE904564FF0A04441EAC0
:101F2000830141EA052104EB800041EA0641C0F843
:101F3000001770BD70B541EA4201DDE904564FF06B
:101F4000A04441EA830141EA052104EB800041EA13
:101F50000641C0F8001770BD1CB500220B46009268
:101F600011460192FFF7E6FF1CBD4FF0A04202EBC5
:101F700080000321C0F8001770471CB500210091B4
:101F80000B46012201911146FFF7D4FF1CBD4FF013
:101F9000A04202EB8000D0F8002722F44032C0F8C3
:101FA0000027D0F8002742EA0141C0F80017704727
:101FB0004FF0A04202EB8000D0F8002722F440321C
:101FC000C0F80027D0F8002742EA0141C0F8001706
:101FD000704701224FF0A043824011B1C3F8082599
:101FE0007047C3F80C25704718B5084B6C46014480
:101FF0001B68009306E000BF54F82030D3F810357A
:10200000401C08C28142F7D818BD0000082D02000C
:10201000034908B50844002101600068009008BD2C
:102020000060004002494058012800D0002070475D
:10203000006000404058002800D00120704708B5DB
:10204000002242504058009008BDD0F804030840D8
:1020500000D0012070474058002800D00120704770
:1020600008B5002242504058009008BD3EB50446D5
:10207000011D00881F2856D027DC10282FD01328D8
:102080004BD01B283BD01D281ED1091D0C462C48C7
:10209000FFF7A6F9002817D0294A2046083202F196
:1020A00008018CDF00280FD1FEF74CFD08B1FDF7C9
:1020B000D9FF2079A27961798DE80700E378A278C9
:1020C000617820A0FDF7F0FC3EBD3B282FD05528BD
:1020D00031D05628F8D1A088132176DF09E00720F7
:1020E000FEF730FD08B1FDF7BDFFA1882148FEF7DE
:1020F0000BFA0028E8D0BDE83E40FDF7B3BF0879F1
:10210000022806D00328DFD1BDE83E401AA0FDF723
:10211000CBBCBDE83E4000F079BA0023A0881A4647
:1021200085217FDFE5E731F8040B75DFE1E7A08863
:10213000132176DFDDE7A0881721ADDFD9E70000A6
:102140007C2C0200436F6E6E656374696E67207449
:102150006F207461726765742025303278253032C3
:102160007825303278253032782530327825303273
:10217000780D0A003C230020436F6E6E656374691E
:102180006F6E20526571756573742074696D656436
:10219000206F75742E0D0A002DE9F84F05460C4688
:1021A0000888B5F85E12884259D195F85A02DFF8CE
:1021B000F8A000EBC00101EB001005EB8001608886
:1021C0004FF003094FF00008F0BBE6880879A21D24
:1021D000F3B250FA86F6052E01D8034400E0052339
:1021E0000B7100261CE000BF00EBC00306EB860766
:1021F00002EB470701EB4303D7F802C0C3F80AC05C
:10220000D7F806C0C3F80EC07F895F82A3F8148098
:10221000A3F81680A3F81880401CA3F81A80761C37
:102220000B798342E0D895F85A2200EBC00002EB0C
:10223000C20303EB021205EB820231F8100012898F
:1022400090420ED2087900E00BE0052809D085F80D
:10225000590221882846FEF737FE01000AD1BDE861
:10226000F88F85F85982228869462846FEF7BEFE17
:1022700001000BD085F85B8222882846FEF786FF96
:102280008AF800902188AAF80210E8E79DF800007B
:102290000028E4D0228801212846FEF71DFF21886E
:1022A000284600F0B1F8DAE720260020F8B5054608
:1022B0000C460888B5F85E1288425DD195F85A023E
:1022C000A61D00EBC00101EB001005EB800395F8A3
:1022D0005902618800EBC00003EB40000A3039B3BB
:1022E00029E000BF01EB410206EB42029788B7F5F7
:1022F000245F0CD06FF4245C17EB0C070AD0012F7D
:1023000002D0072F0BD108E05288428107E05288A3
:10231000828104E05288C28101E0528802824289AF
:102320002AB182891AB1C2890AB1028A1AB9491C32
:1023300032888A42D6D800268DF8006095F8590276
:102340001979401C884203D101208DF8000018E063
:1023500085F85902228869462846FEF747FE0100A3
:102360000BD085F85B6222882846FEF70FFF0A48EB
:102370000321017021884180F8BD9DF800000028EC
:10238000FAD0228801212846FEF7A6FE2188284699
:1023900000F03AF8F8BD00002026002070B5054690
:1023A0000C4690F85A02228800EBC00101EB0010A5
:1023B00005EB8001B5F85E02824222D1608848B107
:1023C00000212846FEF788FE21882846BDE8704097
:1023D00000F01AB8A2680A60E068C1F80600218817
:1023E0002846FEF771FD01000BD0002085F85B0246
:1023F00022882846FEF7CAFE024803210170218880
:10240000418070BD202600202DE9F041044690F85F
:102410005C020E46401C1949C0B284F85C02C968CF
:102420000327174D4FF0000E884224D284F859E25A
:1024300094F85A02401CC0B200EBC00101EB00113D
:1024400004EB810284F85A02A5F1180101EB800027
:1024500001210068106082F804E0304694DF01003A
:1024600007D084F85BE232462046FEF78FFE2F70DD
:102470006E80BDE8F08184F85BE2F8E70820002078
:10248000202600207FB500260D46044600960196C2
:10249000FFF7C8FA082802D008B1FDF7E3FDFFF7FF
:1024A00037FB02A8FFF7FEFA03A8FFF7FBFA54EA8E
:1024B000050002D10720FDF7D5FD3CB19DF80000D5
:1024C00040F0030064F387008DF800003DB19DF8F3
:1024D000010040F0030065F387008DF801009DF8CE
:1024E0000C008DF803009DF808008DF802008DF8AF
:1024F00004606946022068DF7FBD0000044908448B
:1025000090F93000082801DB012070470020704757
:10251000BC2800200449084490F93000082801D262
:102520000120704700207047BC28002070B50C4B7C
:1025300000210A4ADC680DE002EB81058678AD785F
:10254000B54206D132F821500688B54201D158680B
:1025500070BD491CA142EFD3002070BD08260020A9
:102560000820002070B5012670044FF0E0210025FE
:10257000C1F88001084C4010C4F84803C4F80803AF
:1025800066602F20FFF7F0F8A660044C2F20A560AE
:10259000FFF7EAF8A57070BD00100140342000205C
:1025A00070B50546C87D0C4600284FF48471284656
:1025B0000AD0FFF744FDD5F81805627EE16888541B
:1025C000607E401C607670BDFFF739FDD5F81805B8
:1025D00070BD1FB501238DF800308DF808100192F1
:1025E000D0E90012684690471FBD10B50446006848
:1025F0004FF49271FFF723FD4FF484712068FFF7C9
:102600001EFD20680121016010BD000010B50748C3
:102610008ADF08B1FDF726FD0120FEF793FA0028B6
:1026200003D0BDE81040FDF71DBD10BD8C2C02008D
:1026300010B50446FDF758FA40B1002C09DA04F051
:102640000F0000F1E02090F8140D06E042F20100C6
:1026500010BD04F1E02090F800044109082914D2CB
:1026600099B1012911D004290FD005290DD00B48AB
:102670000122816861B1610950F8213004F01F0422
:10268000A240134340F8213005E042F2020010BDA1
:102690002046FDF734F8002010BD0000742900200A
:1026A00018B10349C860002070470E207047000031
:1026B000682000201CB5034901910091694660DF44
:1026C0001CBD0000E81F002070B50E4605461446EC
:1026D0001C211046FCF7C9FE012020800021A161C9
:1026E00021752672657205B1A072002070BDFDF7DC
:1026F000A7BC00002DE9F041074619B188074FF04B
:10270000000402D00720BDE8F081114D4FF0E02019
:102710000126A9606A806B60D0F8000110F0010FFB
:1027200003D034460020FCF7D4FF0A49384610DFB6
:10273000070005D014B10020FCF7E1FF3846E2E7BE
:102740002E70FFF77BF8BDE8F0411620FFF770BF51
:1027500068200020EF260200014800787047000042
:10276000682000202DE9F84F204C00256846D4E968
:1027700001B6FEF725FD8046FEF7ACFE0746A946EA
:10278000B8F1000F25D00023009ACC46606819E00C
:1027900007680146974202D9BA1A026014E0C1F8EC
:1027A00000C0D1F80C80D21BC8693B448A46B8F1FE
:1027B000000F07D0F71827F07F47C1E90178CAF862
:1027C0001C500D460028E3D160602846FEF7D6FE77
:1027D00004E02846FEF7D2FE00B917B15846FEF7CE
:1027E000A9FB84F80390BDE8F88F00003420002096
:1027F0000D4B10B5596831B102680C68A24204D87B
:10280000A21A0A60C161586010BD0B4603E00B4676
:10281000C969121B21B10C689442F8D3A41A0C6048
:102820000260C161D86110BD342000207CB506462D
:1028300000240D468DF800406846FDF777FD01A89D
:1028400000F004FA70B10570094946609DF8040073
:1028500048709DF80000FDF78DFD1420FCF75AFF2D
:1028600020467CBD04249DF80000FDF783FDF7E7BA
:10287000442000202DE9F0411D4D6C68002C35D01E
:102880001C4800270068A968B846401A20F07F4617
:102890002068B04215D82246361A0744E469107CF5
:1028A00068B182F81080EB6833B1D2E9050198472E
:1028B00028B1FDF7D7FB02E0D2E905108847002CCC
:1028C000E6D129786878814206D1401CC0B2687090
:1028D000022801D185F8018005486978183040F850
:1028E0002170BDE8F0411420FCF714BFBDE8F08171
:1028F000342000200415014070B50C4605464FF405
:102900008E71FFF79CFBA18AA068415CA08A401CE5
:10291000A082C5F81C1570BD1FB500228DF80020DF
:102920008DF80810816801918275D0E9001268461F
:1029300090471FBD70B5017841B1012901D002292E
:1029400026D14068BDE87040FDF78CBB124C114D9C
:1029500020782844FDF758FC2078401CC0B2291884
:10296000207011F8011C0A2901D0142810D309493C
:10297000227801F52B70FDF721FF0028F7D1207098
:1029800028783A2804D1BDE870400248FEF7F8B92B
:1029900070BD000080200020E81F00207CB5017879
:1029A000244D81B301290BD002292BD18DF80010C1
:1029B000C068691C01900122C81DFFF7E9F82EE0EC
:1029C000406801781C48FDF773FB1B4C012618B1C9
:1029D0008DF80060019006E0A068E168814205D0B2
:1029E00000208DF80000696868468847A068E168A3
:1029F000081AA188884207D80E490122491CC81D1F
:102A0000FFF7C6F87CBD01E0AE70FBE70A48094954
:102A10001030FDF732FB30B103208DF800006968FB
:102A200068468847EEE70349012201F10800FFF7F5
:102A3000CBF9E7E754200020542900202DE9FF4777
:102A40000C4605464FF40071FFF7FFFA01274FF4DB
:102A50000178002618B34FF4927949462846FFF7CB
:102A6000E9FAE0B149462846FFF7E9FAC5F80883D4
:102A7000A07E00B96F6002208DF80000D5F88004B8
:102A8000C5F880040390E07D8DF80800E0680190AF
:102A9000E6752676D4E900126846904727E00421BF
:102AA0002846FFF7D2FA10B34FF484712846FFF797
:102AB000C1FAE0B121462846FFF772FDE07D617E54
:102AC000884214D1207E38B1617EE268E0752069C9
:102AD000E0602676667607E0A07E00B96F60C5F8F4
:102AE0000883E675617EE2682046FFF772FD4FF4C9
:102AF0008E7841462846FFF79DFA88B1A08AA17DCD
:102B0000884204D221462846FFF7F6FE08E04146F7
:102B10002846FFF794FAA17D11B12046FFF7FCFE8D
:102B20004FF4A27841462846FFF784FA002812D0D5
:102B300041462846FFF783FAA07E00B12F60E07D72
:102B4000002808D0E675617EE26804B02046BDE842
:102B5000F047FFF73EBDBDE8FF872DE9FF410C467A
:102B60004FF4927705463946FFF775FA0026C0B153
:102B700039462846FFF774FA02208DF80000D5F890
:102B80008004C5F880040390D5F83C058DF8080052
:102B9000E0680190E6752676D4E900126846904711
:102BA00024E04FF4887739462846FFF754FAE8B115
:102BB00039462846FFF754FAD5F83C05C1B2E07D06
:102BC000884213D1207E60B1E268D5F8000220F07F
:102BD0002000C5F80002207EE0752069E0602676BE
:102BE00001E0E675E2682046FFF7F3FC4FF4A277B8
:102BF00039462846FFF72FFA68B139462846FFF7CD
:102C00002FFAE07D38B1E675D5F83C05E268C1B22F
:102C10002046FFF7DEFC4FF4907631462846FFF75A
:102C20001AFA00280FD031462846FFF719FAA07D7E
:102C3000002808D0D5F84C0504B0C1B22046BDE844
:102C4000F041FFF769BEBDE8FF8100000A4A10B5F8
:102C500053789478591CC9B28C4200D10021147861
:102C60008C4201D1002010BD0170506803EB43017C
:102C700000EBC10010BD0000442000200100020054
:102C80000200000710003C00000090010100A000BD
:102C9000500000000B0000000C0000000A000000C3
:102CA000090000000100000000E0D70111120D0E24
:102CB0000F1000009C250020BC250020E8250020E6
:102CC0000D000300250A02000E000300250A020081
:102CD0000F000300250A020010000300250A02006D
:102CE0009ECADC240EE5A9E093F3A3B50000406E74
:102CF00001010000000002000000000002010000CD
:102D000000000000000000000000005034290020F6
:102D100003000000FFFFFFFFFFFFFFFFFFFFFFFFBC
:102D2000FFFFFFFF00000000000000000000D601D0
:102D300007010000542D0200E81F00209800000049
:102D4000C8FA0100EC2D02008020002000290000BC
:102D5000D8FA0100000000000000000000000000A0
:102D60000000000000000000000000000000000063
:102D70000000000000000000000000000000000053
:102D80000000000000000000000000000000000043
:102D90000000000000000000000000000000000033
:102DA0000000000000000000000000000000000023
:102DB0000000000000000000000000000000000013
:102DC00000000000000000000020004000000000A3
:102DD00000000000000000000000000000000000F3
:0C2DE00000000000000000000090D00384
:040000050001F40101
:00000001FF
